{
  "_format": "hh-sol-artifact-1",
  "contractName": "MerkleAirdrop",
  "sourceName": "contracts/MerkleAirdrop.sol",
  "abi": [
    {
      "inputs": [
        {
          "internalType": "address",
          "name": "_token",
          "type": "address"
        },
        {
          "internalType": "address",
          "name": "_bayc",
          "type": "address"
        },
        {
          "internalType": "bytes32",
          "name": "_merkleRoot",
          "type": "bytes32"
        }
      ],
      "stateMutability": "nonpayable",
      "type": "constructor"
    },
    {
      "inputs": [],
      "name": "bayc",
      "outputs": [
        {
          "internalType": "contract IERC721",
          "name": "",
          "type": "address"
        }
      ],
      "stateMutability": "view",
      "type": "function"
    },
    {
      "inputs": [
        {
          "internalType": "uint256",
          "name": "tokenId",
          "type": "uint256"
        },
        {
          "internalType": "bytes32[]",
          "name": "merkleProof",
          "type": "bytes32[]"
        }
      ],
      "name": "claim",
      "outputs": [],
      "stateMutability": "nonpayable",
      "type": "function"
    },
    {
      "inputs": [
        {
          "internalType": "address",
          "name": "",
          "type": "address"
        }
      ],
      "name": "claimed",
      "outputs": [
        {
          "internalType": "bool",
          "name": "",
          "type": "bool"
        }
      ],
      "stateMutability": "view",
      "type": "function"
    },
    {
      "inputs": [],
      "name": "merkleRoot",
      "outputs": [
        {
          "internalType": "bytes32",
          "name": "",
          "type": "bytes32"
        }
      ],
      "stateMutability": "view",
      "type": "function"
    },
    {
      "inputs": [],
      "name": "token",
      "outputs": [
        {
          "internalType": "contract IERC20",
          "name": "",
          "type": "address"
        }
      ],
      "stateMutability": "view",
      "type": "function"
    }
  ],
  "bytecode": "0x60806040523480156200001157600080fd5b5060405162000d9938038062000d9983398181016040528101906200003791906200016e565b82600160006101000a81548173ffffffffffffffffffffffffffffffffffffffff021916908373ffffffffffffffffffffffffffffffffffffffff16021790555081600260006101000a81548173ffffffffffffffffffffffffffffffffffffffff021916908373ffffffffffffffffffffffffffffffffffffffff16021790555080600081905550505050620001ca565b600080fd5b600073ffffffffffffffffffffffffffffffffffffffff82169050919050565b6000620000fb82620000ce565b9050919050565b6200010d81620000ee565b81146200011957600080fd5b50565b6000815190506200012d8162000102565b92915050565b6000819050919050565b620001488162000133565b81146200015457600080fd5b50565b60008151905062000168816200013d565b92915050565b6000806000606084860312156200018a5762000189620000c9565b5b60006200019a868287016200011c565b9350506020620001ad868287016200011c565b9250506040620001c08682870162000157565b9150509250925092565b610bbf80620001da6000396000f3fe608060405234801561001057600080fd5b50600436106100575760003560e01c80632eb4a7ab1461005c5780632f52ebb71461007a5780637685807d14610096578063c884ef83146100b4578063fc0c546a146100e4575b600080fd5b610064610102565b60405161007191906105a1565b60405180910390f35b610094600480360381019061008f9190610661565b610108565b005b61009e61039f565b6040516100ab9190610740565b60405180910390f35b6100ce60048036038101906100c99190610799565b6103c5565b6040516100db91906107e1565b60405180910390f35b6100ec6103e5565b6040516100f9919061081d565b60405180910390f35b60005481565b600360003373ffffffffffffffffffffffffffffffffffffffff1673ffffffffffffffffffffffffffffffffffffffff16815260200190815260200160002060009054906101000a900460ff1615610195576040517f08c379a000000000000000000000000000000000000000000000000000000000815260040161018c90610895565b60405180910390fd5b61019f338461040b565b6101de576040517f08c379a00000000000000000000000000000000000000000000000000000000081526004016101d590610901565b60405180910390fd5b600033846040516020016101f392919061098a565b604051602081830303815290604052805190602001209050610259838380806020026020016040519081016040528093929190818152602001838360200280828437600081840152601f19601f82011690508083019250505050505050600054836104df565b610298576040517f08c379a000000000000000000000000000000000000000000000000000000000815260040161028f90610a02565b60405180910390fd5b6001600360003373ffffffffffffffffffffffffffffffffffffffff1673ffffffffffffffffffffffffffffffffffffffff16815260200190815260200160002060006101000a81548160ff021916908315150217905550600160009054906101000a900473ffffffffffffffffffffffffffffffffffffffff1673ffffffffffffffffffffffffffffffffffffffff1663a9059cbb33670de0b6b3a76400006040518363ffffffff1660e01b8152600401610355929190610a6c565b6020604051808303816000875af1158015610374573d6000803e3d6000fd5b505050506040513d601f19601f820116820180604052508101906103989190610ac1565b5050505050565b600260009054906101000a900473ffffffffffffffffffffffffffffffffffffffff1681565b60036020528060005260406000206000915054906101000a900460ff1681565b600160009054906101000a900473ffffffffffffffffffffffffffffffffffffffff1681565b60008273ffffffffffffffffffffffffffffffffffffffff16600260009054906101000a900473ffffffffffffffffffffffffffffffffffffffff1673ffffffffffffffffffffffffffffffffffffffff16636352211e846040518263ffffffff1660e01b815260040161047f9190610afd565b602060405180830381865afa15801561049c573d6000803e3d6000fd5b505050506040513d601f19601f820116820180604052508101906104c09190610b2d565b73ffffffffffffffffffffffffffffffffffffffff1614905092915050565b6000826104ec85846104f6565b1490509392505050565b60008082905060005b845181101561053b5761052c8286838151811061051f5761051e610b5a565b5b6020026020010151610546565b915080806001019150506104ff565b508091505092915050565b600081831061055e576105598284610571565b610569565b6105688383610571565b5b905092915050565b600082600052816020526040600020905092915050565b6000819050919050565b61059b81610588565b82525050565b60006020820190506105b66000830184610592565b92915050565b600080fd5b600080fd5b6000819050919050565b6105d9816105c6565b81146105e457600080fd5b50565b6000813590506105f6816105d0565b92915050565b600080fd5b600080fd5b600080fd5b60008083601f840112610621576106206105fc565b5b8235905067ffffffffffffffff81111561063e5761063d610601565b5b60208301915083602082028301111561065a57610659610606565b5b9250929050565b60008060006040848603121561067a576106796105bc565b5b6000610688868287016105e7565b935050602084013567ffffffffffffffff8111156106a9576106a86105c1565b5b6106b58682870161060b565b92509250509250925092565b600073ffffffffffffffffffffffffffffffffffffffff82169050919050565b6000819050919050565b60006107066107016106fc846106c1565b6106e1565b6106c1565b9050919050565b6000610718826106eb565b9050919050565b600061072a8261070d565b9050919050565b61073a8161071f565b82525050565b60006020820190506107556000830184610731565b92915050565b6000610766826106c1565b9050919050565b6107768161075b565b811461078157600080fd5b50565b6000813590506107938161076d565b92915050565b6000602082840312156107af576107ae6105bc565b5b60006107bd84828501610784565b91505092915050565b60008115159050919050565b6107db816107c6565b82525050565b60006020820190506107f660008301846107d2565b92915050565b60006108078261070d565b9050919050565b610817816107fc565b82525050565b6000602082019050610832600083018461080e565b92915050565b600082825260208201905092915050565b7f416c726561647920636c61696d65640000000000000000000000000000000000600082015250565b600061087f600f83610838565b915061088a82610849565b602082019050919050565b600060208201905081810360008301526108ae81610872565b9050919050565b7f4e6f7420616e206f776e6572206f662042415943000000000000000000000000600082015250565b60006108eb601483610838565b91506108f6826108b5565b602082019050919050565b6000602082019050818103600083015261091a816108de565b9050919050565b60008160601b9050919050565b600061093982610921565b9050919050565b600061094b8261092e565b9050919050565b61096361095e8261075b565b610940565b82525050565b6000819050919050565b61098461097f826105c6565b610969565b82525050565b60006109968285610952565b6014820191506109a68284610973565b6020820191508190509392505050565b7f496e76616c69642070726f6f6600000000000000000000000000000000000000600082015250565b60006109ec600d83610838565b91506109f7826109b6565b602082019050919050565b60006020820190508181036000830152610a1b816109df565b9050919050565b610a2b8161075b565b82525050565b6000819050919050565b6000610a56610a51610a4c84610a31565b6106e1565b6105c6565b9050919050565b610a6681610a3b565b82525050565b6000604082019050610a816000830185610a22565b610a8e6020830184610a5d565b9392505050565b610a9e816107c6565b8114610aa957600080fd5b50565b600081519050610abb81610a95565b92915050565b600060208284031215610ad757610ad66105bc565b5b6000610ae584828501610aac565b91505092915050565b610af7816105c6565b82525050565b6000602082019050610b126000830184610aee565b92915050565b600081519050610b278161076d565b92915050565b600060208284031215610b4357610b426105bc565b5b6000610b5184828501610b18565b91505092915050565b7f4e487b7100000000000000000000000000000000000000000000000000000000600052603260045260246000fdfea26469706673582212202ff3e6f7ef9d1e4576c28043dc28581b4592dbd2b2b3f84aa7162dd50396c66364736f6c63430008180033",
  "linkReferences": {},
  "deployedLinkReferences": {}
}